S01000006578325F4C6162342E7372656363
S11300000C942A000C943C000C943C000C943C008E
S11300100C943C000C943C000C943C000C943C006C
S11300200C943C000C943C000C943C000C943C005C
S11300300C943C000C943C000C943C000C943C004C
S11300400C943C000C943C000C943C000C943C003C
S11300500C943C0011241FBECFE5D4E0DEBFCDBF1D
S113006020E0A0E6B0E001C01D92A336B207E1F79C
S11300700E948B010C94AD010C94000020B32F70EE
S1130080982F907F922B92BB939A939830E1839F01
S1130090C0011124822B82BB939A93980895929A5B
S11300A00E943E0082E78A95F1F700C00895929875
S11300B00E943E0088E68A95F1F708952FEF89EFB4
S11300C090E0215080409040E1F700C0000080E3C0
S11300D082BB939A939828E62A95F1F782BB939A68
S11300E0939885E38A95F1F7000080E282BB939AA6
S11300F0939898E69A95F1F788E20E9457008CE06D
S11301000E94570081E00E94570083EF9BE0019713
S1130110F1F700C0000086E00E9457000895D49AC9
S1130120DC988FEB93E00197F1F700C00000D498BE
S1130130DC98E7ECF0E03197F1F700C0000089B3F8
S1130140E7EFF2E03197F1F700C00000829581708B
S113015091E089270895D49ADC9895E09A95F1F76F
S1130160000080FF0CC0DC9A8AE98A95F1F700C090
S1130170D498DC9892E09A95F1F700C008958BB377
S113018080718BBBF1CF0F931F93CF93C82F08E0DF
S113019010E08C2F8170C0FD04C080E00E94AB0091
S11301A004C0813011F40E94AB00C69501501109BE
S11301B081F7CF911F910F910895D49ADC9885E02F
S11301C08A95F1F70000D498DC989AE19A95F1F7B2
S11301D000C089B392E89A95F1F700C082958170C6
S11301E008950F931F93CF93DF9308E010E080E00E
S11301F0D0E8C82FC6950E94DD00813009F48D2F08
S11302008C2B01501109A9F7DF91CF911F910F9108
S11302100895CF930E948F008823F9F08CEC0E94FC
S1130220C30084E40E94C3000E94DD0080FFFCCF71
S11302300E948F008823A1F08CEC0E94C3008EEBF7
S11302400E94C3000E94F100C82F0E94F10090E0B8
S1130250982F8827C6958C2B05C080E090E802C0B3
S113026080E090E8CF91089582E00E9457008EE4E8
S11302700E944F008FE40E944F0080E20E944F00D2
S113028084E40E944F0085E40E944F0086E50E94AA
S11302904F0089E40E944F0083E40E944F0085E4EC
S11302A00E944F0008951F93CF93DF93182FD62FEA
S11302B0C42F82E00E94570080E3810F0E944F0008
S11302C080E38D0F0E944F0080E38C0F0E944F004B
S11302D088EF0E944F0083E40E944F00DF91CF918A
S11302E01F910895843630F0909160009F5F909341
S11302F0600084568A3060F0909162009F5F01C074
S1130300922F8A5021E0290F8A30D0F7909362000F
S11303108093610008958FEF81BB0E945E0010926C
S1130320600010926100109262000E940901811520
S113033020E8920719F40E943401F1CF9F3F59F04D
S11303400E9472014091610060916200809160009E
S11103500E945301E4CF8195F3CFF894FFCFC0
S9030000FC
