S01700004763634170706C69636174696F6E332E7372656359
S11300000C942A000C9447000C9447000C9447006D
S11300100C9447000C9447000C9447000C94470040
S11300200C9472030C9447000C9447000C94470002
S11300300C9447000C9447000C9447000C94470020
S11300400C9447000C9447000C9447000C94470010
S11300500C94470011241FBECFE5D4E0DEBFCDBF12
S113006010E0A0E6B0E0E2EBF9E002C005900D92EA
S1130070AE36B107D9F720E0AEE6B0E001C01D927C
S1130080A437B207E1F70E94E1030C94D7040C945F
S1130090000028E030E002C0220F331F8A95E2F707
S11300A025BB0000000083B38F7090E008950F9388
S11300B01F93CF93DF9384E00E944900EC0183E017
S11300C00E9449008C0182E00E9449000295129529
S11300D0107F1027007F102720E030E0382F202BDE
S11300E0312BC22BD32B81E00E94490020E030E069
S11300F0382F3295307FC9018C2B9D2BDF91CF9106
S11301001F910F910895CF93DF930E945700EC0144
S11301102FE788E391E0215080409040E1F700C050
S113012000000E9457008C239D2320916E00309183
S11301306F002095309590936F0080936E0082231A
S11301409323DF91CF91089580FD20C081FD20C0CD
S113015082FD20C083FD20C084FD20C085FD20C019
S113016086FD20C087FD20C090FD20C091FD20C0E9
S113017092FD20C093FD20C094FD20C095FD20C0B9
S113018096FD20C0992304F180E008958AE2089541
S113019080E3089583E2089584E4089587E308954D
S11301A088E3089589E3089583E4089584E3089532
S11301B085E3089586E3089582E4089581E308952C
S11301C082E3089583E3089581E408951BB888E1E8
S11301D08AB910BC83E389B986E880BD08955D9B24
S11301E0FECF8CB908955F9BFECF8CB1089520B3E8
S11301F02F70982F907F922B92BB939A939830E113
S1130200839FC0011124822B82BB939A93980895F3
S1130210929A0E94F70082E78A95F1F700C0089548
S113022092980E94F70088E68A95F1F708952FEFD7
S113023089EF90E0215080409040E1F700C0000039
S113024080E382BB939A939828E62A95F1F782BBC0
S1130250939A939885E38A95F1F7000080E282BB34
S1130260939A939898E69A95F1F788E20E94100180
S11302708CE00E94100181E00E94100183EF9BE05A
S11302800197F1F700C0000086E00E941001089574
S1130290D49ADC988FEB93E00197F1F700C000004B
S11302A0D498DC98E7ECF0E03197F1F700C0000057
S11302B089B3E7EFF2E03197F1F700C000008295CF
S11302C0817091E089270895D49ADC9895E09A95F5
S11302D0F1F7000080FF0CC0DC9A8AE98A95F1F7F7
S11302E000C0D498DC9892E09A95F1F700C0089584
S11302F08BB380718BBBF1CF0F931F93CF93C82F18
S113030008E010E08C2F8170C0FD04C080E00E94E2
S1130310640104C0813011F40E946401C695015047
S1130320110981F7CF911F910F910895D49ADC9808
S113033085E08A95F1F70000D498DC989AE19A95C3
S1130340F1F700C089B392E89A95F1F700C082955D
S1130350817008950F931F93CF93DF9308E010E00B
S113036080E0D0E8C82FC6950E949601813009F438
S11303708D2F8C2B01501109A9F7DF91CF911F917B
S11303800F910895CF930E9448018823F9F08CECD3
S11303900E947C0184E40E947C010E94960180FFFB
S11303A0FCCF0E9448018823A1F08CEC0E947C01C0
S11303B08EEB0E947C010E94AA01C82F0E94AA0110
S11303C090E0982F8827C6958C2B05C080E090E894
S11303D002C080E090E8CF91089582E00E9410016D
S11303E08EE40E9408018FE40E94080180E20E94CA
S11303F0080184E40E94080185E40E94080186E55E
S11304000E94080189E40E94080183E40E94080113
S113041085E40E9408010895843630F090917100BB
S11304209F5F9093710084568A3060F090917300BE
S11304309F5F01C0922F8A5021E0290F8A30D0F7A4
S1130440909373008093720008950F931F93CF933A
S1130450DF93EC018E010E94F30089938A30D1F777
S1130460F8011082DF91CF911F910F91089584E7D5
S11304700E94EF0085E60E94EF0081E60E94EF00F3
S11304808DE60E94EF008EE60E94EF0081E60E9456
S1130490EF008DE60E94EF0085E60E94EF008AE3FC
S11304A00E94EF0087E40E94EF0089E30E94EF00BE
S11304B08AE00E94EF00089583E60E94EF008FE631
S11304C00E94EF008EE60E94EF008EE60E94EF008D
S11304D085E60E94EF0083E60E94EF0084E70E9415
S11304E0EF008AE00E94EF000895CF93C82F82E0C6
S11304F00E9410018C2F0E9408018EE20E940801C4
S113050083E50E94080185E70E94080183E60E94B2
S1130510080183E60E94080185E60E94080183E73A
S11305200E94080183E70E940801CF910895CF93A8
S1130530C82F82E00E9410018C2F0E9408018EE2D5
S11305400E94080186E40E94080181E60E940801D5
S113055089E60E9408018CE60E94080180E20E945C
S1130560080180E20E94080180E20E940801CF9104
S11305700895CF93DF93D82FC62F80E70E94EF0012
S113058081E60E94EF0089E70E94EF008CE60E945A
S1130590EF008FE60E94EF0081E60E94EF0084E600
S11305A00E94EF008BE50E94EF008BE70E94EF00B2
S11305B082E20E94EF008EE60E94EF0081E60E9434
S11305C0EF008DE60E94EF0085E60E94EF0082E2D4
S11305D00E94EF008AE30E94EF0082E20E94EF0093
S11305E084E50E94EF0085E60E94EF008DE60E94FC
S11305F0EF0080E70E94EF0085E60E94EF0082E7AB
S11306000E94EF0081E60E94EF0084E70E94EF0061
S113061085E70E94EF0082E70E94EF0085E60E94D2
S1130620EF0082E20E94EF008CE20E94EF0082E27F
S11306300E94EF0086E70E94EF0081E60E94EF002F
S11306408CE60E94EF0085E70E94EF0085E60E9499
S1130650EF0082E20E94EF008AE30E94EF008D2FF8
S11306600E94EF008C2F0E94EF008AE00E94EF00AE
S1130670DF91CF910895CF93C82F82E70E94EF00B6
S113068085E60E94EF0081E60E94EF0084E60E9466
S1130690EF0089E70E94EF008AE30E94EF00C4356F
S11306A069F484E70E94EF0082E70E94EF0085E787
S11306B00E94EF0085E60E94EF000FC086E60E94CC
S11306C0EF0081E60E94EF008CE60E94EF0083E7D2
S11306D00E94EF0085E60E94EF008AE00E94EF008E
S11306E0CF9108951F920F920FB60F9211240F937A
S11306F01F932F933F934F935F936F937F938F93A6
S11307009F93AF93BF93EF93FF93CF93DF93CDB7B3
S1130710DEB7C456D109DEBFCDBFF8940E94830072
S11307200E94A400893321F484E50E943B0303C0A2
S113073086E40E943B038E010F5F1F4F84E6F8019D
S113074011928A95E9F7C8010E94250260E670E0DB
S1130750C8010E94CE04892B21F084E30E94750213
S11307600BC068E670E0CE0101960E94CE04892B8E
S113077019F084E30E94970284E089BF82E08EBD71
S11307808FEF8DBD8BEF8CBD7894CC59DF4F0FB6B6
S1130790F894DEBF0FBECDBFDF91CF91FF91EF91F3
S11307A0BF91AF919F918F917F916F915F914F9185
S11307B03F912F911F910F910F900FBE0F901F909B
S11307C01895CF93DF93CDB7DEB7C456D1090FB6D2
S11307D0F894DEBF0FBECDBF8FEF81BB80EF84BB2B
S11307E00E94E6000E9417010E9437028E010F5FEB
S11307F01F4F84E6D8011D928A95E9F7C8010E942B
S1130800250260E670E0C8010E94CE04892B21F025
S113081081E30E9475020BC068E670E0CE01019688
S11308200E94CE04892B19F081E30E949702BFEF46
S1130830E9E6F8E1B150E040F040E1F700C0000023
S11308408E010F5F1F4F84E6D8011D928A95E9F748
S11308500E945C02C8010E94250260E670E0C801A3
S11308600E94CE04892B21F082E30E9475020BC002
S113087068E670E0CE0101960E94CE04892B19F03F
S113088082E30E949702BFEFE9E6F8E1B150E0404D
S1130890F040E1F700C00000FE01319684E6DF017C
S11308A01D928A95E9F70F2EF4E6FF2EF02D8F01A5
S11308B010926F0010926E00F894109271001092D2
S11308C07200109273000E94C2018115B0E89B0768
S11308D019F40E94ED012AC09F3F09F45DC00E94F3
S11308E00C0260917200605D80917300805D0E94D3
S11308F0B902F8012F2D11922A95E9F7C8010E9437
S1130900250260E670E0C8010E94CE04892B21F024
S113091083E30E9475020AC068E670E0C8010E9481
S1130920CE04892B19F083E30E9497028FEF99E696
S1130930A8E181509040A040E1F700C00000789405
S11309400E9483000E94A400893321F484E50E945C
S11309503B0303C086E40E943B03F8012F2D119250
S11309602A95E9F7C8010E94250260E670E0C801F3
S11309700E94CE04892B21F084E30E94750298CF53
S113098068E670E0C8010E94CE04892B09F490CF78
S113099084E30E9497028CCF8195A1CFFB01DC01F7
S11309A08D91019080190110D9F3990B0895F89451
S10509B0FFCF73
S11109B253756363657373004661696C0000DE
S9030000FC
