:020000020000FC
:1000000000C08FE58DBF84E08EBF8FEF87BB882750
:1000100080EF84BB8AE032D062D08030D9F3082FE1
:100020008AE02CD05CD08030D9F3182F003319F03F
:1000300009D00C942000193311F00C94180014D03E
:100040000C940A0038E02FEF28BB8AEF90E07AD0BA
:10005000222728BB8AEF90E075D03A95A1F7882730
:100060009927222728BB08952FEF28BB80EA9FE01D
:1000700069D088279927222728BB0895682F1FD089
:100080008F939F93862F90E05DD019D07F916F91D1
:1000900086239723A0E6B0E07D916C918C939E938C
:1000A0007095609586239723089598E0990F8A9517
:1000B000E9F795BB0000000083B38F70089581E0DD
:1000C000F4DF8295B82F82E0F0DFB80F83E0EDDF38
:1000D0008295A82F84E0E9DFA80FCD010895DC0107
:1000E0008AE2A0FD089580E3A1FD089583E2A2FDC8
:1000F000089584E4A3FD089587E3A4FD089588E3AB
:10010000A5FD089589E3A6FD089583E4A7FD08955C
:1001100084E3B0FD089585E3B1FD089586E3B2FD63
:10012000089582E4B3FD089581E3B4FD089582E368
:10013000B5FD089583E3B6FD089581E4B7FD089504
:10014000882708958F939F9386EE93E005D09F9123
:100150008F910197B9F70895019700000000000002
:0801600000000000C9F708953A
:00000001FF
