:100000000C942A000C9434000C9434000C943400AA
:100010000C9434000C9434000C9434000C94340090
:100020000C9434000C9434000C9434000C94340080
:100030000C9434000C9434000C9434000C94340070
:100040000C9434000C9434000C9434000C94340060
:100050000C94340011241FBECFE5D4E0DEBFCDBF29
:100060000E941A010C9420010C94000020B32F7000
:10007000982F907F922B92BB939A93988295807F32
:10008000282B22BB939A93980895929A0E94360047
:1000900082E78A95F1F7089592980E94360088E6E3
:1000A0008A95F1F7089580E991E028EC30E0F901B4
:1000B0003197F1F70197D9F780E382BB939A939830
:1000C00098E6292F2A95F1F782BB939A939885E3B6
:1000D0008A95F1F780E282BB939A93989A95F1F70B
:1000E00088E20E944C008CE00E944C0081E00E945B
:1000F0004C0084EF9BE00197F1F786E00E944C00F2
:100100000895D49ADC9880EC93E00197F1F7D498A5
:10011000DC9888EC90E00197F1F789B3E8EFF2E022
:100120003197F1F782958F70809581700895D49AF8
:10013000DC9895E09A95F1F780FF02C0DC9A03C045
:100140008BB380718BBB8AE98A95F1F7D498DC98E0
:1001500082E08A95F1F708951F93CF93DF93182FCC
:10016000C0E0D0E010FD02C080E001C081E00E944C
:1001700097002196C830D10511F01695F3CFDF9185
:10018000CF911F910895D49ADC9885E08A95F1F774
:10019000D498DC988AE18A95F1F789B392E89A9528
:1001A000F1F790E024E0969587952A95E1F7817024
:1001B00008951F93CF93DF9310E0C0E0D0E00E943A
:1001C000C300813009F480E81695182B2196C830B9
:1001D000D105A9F7812FDF91CF911F9108951F932A
:1001E0000E948100882309F18CEC0E94AC0084E419
:1001F0000E94AC000E94C30080FFFCCF0E948100DF
:10020000882399F08CEC0E94AC008EEB0E94AC002D
:100210000E94D900182F0E94D9001695412F50E056
:10022000382F20E0422B532B02C040E050E8CA0197
:100230001F9108958FEF87BB0E94EF0088BBFCCF12
:04024000F894FFCF60
:00000001FF
