:020000020000FC
:1000000000C08FE58DBF84E08EBF8FEF81BB8ABBC0
:10001000882780EF84BB52D088278AE08FD0E82FD2
:10002000F92FBDD08030C1F3082F8AE087D0C82FC8
:10003000D92FB5D08030C9F3182F882782E078D027
:10004000802F70D0812F6ED08DE36CD08E2F9F2F9C
:10005000D9D0082F8C2F9D2FD5D0182F000F000F2F
:10006000000F000F012B802F10D0852F5BD0842F25
:1000700090E3890F57D0832F90E3890F53D0822FBD
:1000800090E3890F4FD00C940C005BE287FD5DE29A
:100090002227332744275D3261F0843610F041E097
:1000A00084568A3020F033958A500C945100282FC2
:1000B0000895809591E0890F0C944D0088E290E0BE
:1000C000D4D080E382BB939A939887E290E0D7D014
:1000D00080E382BB939A939887E290E0D0D080E24D
:1000E00082BB939A939887E290E0C9D088E220D0AF
:1000F0008CE01ED081E01CD08AEF95E0C0D086E075
:1001000017D008958F9390B39F70807F890F82BB23
:10011000939A93988F918295807F890F82BB939A4F
:1001200093980895929AEEDF8BE290E0A8D008951C
:100130009298E8DF87E290E0A2D00895682F1FD060
:100140008F939F93862F90E090D019D07F916F91DD
:1001500086239723A0E6B0E07D916C918C939E93CB
:100160007095609586239723089598E0990F8A9556
:10017000E9F795BB0000000083B38F70089581E01C
:10018000F4DF8295B82F82E0F0DFB80F83E0EDDF77
:100190008295A82F84E0E9DFA80FCD010895DC0146
:1001A00085E4A0FD089580E3A1FD089586E4A2FD05
:1001B000089584E4A3FD089587E3A4FD089588E3EA
:1001C000A5FD089589E3A6FD089583E4A7FD08959C
:1001D00084E3B0FD089585E3B1FD089586E3B2FDA3
:1001E000089582E4B3FD089581E3B4FD089582E3A8
:1001F000B5FD089583E3B6FD089581E4B7FD089544
:1002000088270895DC018EE0A0FD089580E0A1FD1F
:1002100008958FE0A2FD08958DE0A3FD089587E085
:10022000A4FD089588E0A5FD089589E0A6FD089540
:100230008CE0A7FD089584E0B0FD089585E0B1FD50
:10024000089586E0B2FD08958BE0B3FD089581E046
:10025000B4FD089582E0B5FD089583E0B6FD0895EC
:100260008AE0B7FD0895882708958F939F9386EEBF
:1002700093E005D09F918F910197B9F70895019769
:0E02800000000000000000000000C9F7089513
:00000001FF
