:100000000C942A000C943C000C943C000C943C0092
:100010000C943C000C943C000C943C000C943C0070
:100020000C943C000C943C000C943C000C943C0060
:100030000C943C000C943C000C943C000C943C0050
:100040000C943C000C943C000C943C000C943C0040
:100050000C943C0011241FBECFE5D4E0DEBFCDBF21
:1000600020E0A0E6B0E001C01D92A436B207E1F79F
:100070000E947F010C94D4010C94000028E030E031
:1000800002C0220F331F8A95E2F725BB0000000053
:1000900093B381E0911101C080E008950F931F9305
:1000A000CF93DF9381E090E00E943E0090E1899F32
:1000B000E001112482E090E00E943E0002E610E0A0
:1000C0008F70C82BF801C18383E090E00E943E004E
:1000D000F0E18F9FE001112484E090E00E943E0057
:1000E0008F70C82BF801C083DF91CF911F910F91C2
:1000F00008950F931F93CF93DF930E944E00E2E683
:10010000F0E0C081D0E081818E01182B8FE19EE468
:100110000197F1F700C000000E944E00809160003E
:1001200090916100D0936100C0936000809590959C
:1001300080239123DF91CF911F910F91089580919A
:10014000620080FD23C081FD23C082FD23C083FDAA
:1001500023C084FD23C085FD23C086FD23C08823E2
:100160001CF19091630090FD21C091FD21C092FD92
:1001700021C093FD21C094FD21C095FD21C0892F90
:10018000807496FD1FC0992304F51EC08AE208956D
:1001900080E3089583E2089584E4089587E3089551
:1001A00088E3089589E3089583E4089584E3089536
:1001B00085E3089586E3089582E4089581E3089530
:1001C00082E3089583E3089581E4089590916200A5
:1001D000892F817090FD23C091FD3EC092FD21C00A
:1001E00093FD21C094FD21C095FD21C096FD21C045
:1001F00099230CF19091630090FD1FC091FD1FC0E9
:1002000092FD1FC093FD1FC094FD1FC095FD1FC030
:10021000892F807496FD1DC09923F4F41CC08EE0D4
:1002200008958FE008958DE0089587E0089588E0AF
:10023000089589E008958CE0089584E0089585E0AC
:10024000089586E008958BE0089581E0089582E0A6
:10025000089583E008958AE0089590B39F70282F51
:10026000207F290F22BB28E022BB12BA30E1839FF6
:10027000900D112492BB22BB12BA089594E092BB58
:100280000E942D0182E78A95F1F700C0089518BAFF
:100290000E942D0188E68A95F1F708952FEF89EFE6
:1002A00090E0215080409040E1F700C0000090E3D2
:1002B00092BB88E082BB12BA28E62A95F1F792BB7E
:1002C00082BB12BA98E69A95F1F790E292BB82BB94
:1002D00012BA28E62A95F1F788E20E9447018CE0DD
:1002E0000E94470181E00E94470183EF9BE0019754
:1002F000F1F700C0000086E00E94470108958FEFEB
:1003000087BB80EF84BB0E944E01D12CC12CC2E67A
:10031000D0E010926100109260000E947900888302
:1003200089830E949F00F82E0E94E600182FFF206C
:10033000A1F30E947900888389830E949F00E82EA0
:100340000E94E600082FEE20A1F381E00E94470101
:100350008F2D0E943E018E2D0E943E018DE30E9452
:100360003E011295107F102B14F08BE201C08DE23C
:100370001A3050F0143620F01456CC24C39402C026
:10038000D3941A501A30B0F790E3C90ED90E0E94D8
:100390003E018C2D0E943E018D2D0E943E0180E386
:0C03A000810F0E943E01B5CFF894FFCF02
:00000001FF
