:100000000C942A000C9434000C9434000C943400AA
:100010000C9434000C9434000C9434000C94340090
:100020000C9434000C9434000C9434000C94340080
:100030000C9434000C9434000C9434000C94340070
:100040000C9434000C9434000C9434000C94340060
:100050000C94340011241FBECFE5D4E0DEBFCDBF29
:100060000E94DB000C94E1000C940000D49ADC9810
:100070008FEB93E00197F1F700C00000D498DC9873
:10008000E7ECF0E03197F1F700C0000089B3E7EF4B
:10009000F2E03197F1F700C000008295817091E0A5
:1000A00089270895D49ADC9895E09A95F1F7000095
:1000B00080FF0CC0DC9A8AE98A95F1F700C0D498D9
:1000C000DC9892E09A95F1F700C008958BB38071A7
:1000D0008BBBF1CF0F931F93CF93C82F08E010E095
:1000E0008C2F8170C0FD04C080E00E94520004C0CB
:1000F000813011F40E945200C6950150110981F718
:10010000CF911F910F910895D49ADC9885E08A953C
:10011000F1F70000D498DC989AE19A95F1F700C0C5
:1001200089B392E89A95F1F700C08295817008959D
:100130000F931F93CF93DF9308E010E080E0D0E8A7
:10014000C82FC6950E948400813009F48D2F8C2B16
:1001500001501109A9F7DF91CF911F910F910895D7
:10016000CF930E9436008823F9F08CEC0E946A003D
:1001700084E40E946A000E94840080FFFCCF0E94F9
:1001800036008823A1F08CEC0E946A008EEB0E945E
:100190006A000E949800C82F0E94980090E0982F53
:1001A0008827C6958C2B05C080E090E802C080E0CF
:1001B00090E8CF9108958FEF87BB0E94B00088BB75
:0601C000FCCFF894FFCF14
:00000001FF
