:100000000C942A000C943C000C943C000C943C0092
:100010000C943C000C943C000C943C000C943C0070
:100020000C943C000C943C000C943C000C943C0060
:100030000C943C000C943C000C943C000C943C0050
:100040000C943C000C943C000C943C000C943C0040
:100050000C943C0011241FBECFE5D4E0DEBFCDBF21
:1000600010E0A0E6B0E001C01D92A436B107E1F7B0
:100070000E948D010C94C3010C94000020B32F70DA
:10008000982F907F922B92BB939A93988295807F22
:10009000282B22BB939A93980895929A0E943E002F
:1000A00082E78A95F1F7089592980E943E0088E6CB
:1000B0008A95F1F7089580E991E028EC30E0F901A4
:1000C0003197F1F70197D9F780E382BB939A939820
:1000D00098E6292F2A95F1F782BB939A939885E3A6
:1000E0008A95F1F780E282BB939A93989A95F1F7FB
:1000F00088E20E9454008CE00E94540081E00E943B
:10010000540084EF9BE00197F1F786E00E945400D1
:100110000895D49ADC9880EC93E00197F1F7D49895
:10012000DC9888EC90E00197F1F789B3E8EFF2E012
:100130003197F1F782958F70809581700895D49AE8
:10014000DC9895E09A95F1F780FF02C0DC9A03C035
:100150008BB380718BBB8AE98A95F1F7D498DC98D0
:1001600082E08A95F1F708951F93CF93DF93182FBC
:10017000C0E0D0E010FD02C080E001C081E00E943C
:100180009F002196C830D10511F01695F3CFDF916D
:10019000CF911F910895D49ADC9885E08A95F1F764
:1001A000D498DC988AE18A95F1F789B392E89A9518
:1001B000F1F790E024E0969587952A95E1F7817014
:1001C00008951F93CF93DF93C0E0D0E010E00E942A
:1001D000CB00813009F480E81695182B2196C830A1
:1001E000D105A9F7812FDF91CF911F9108951F931A
:1001F0000E948900882309F18CEC0E94B40084E4F9
:100200000E94B4000E94CB0080FFFCCF0E948900B6
:10021000882399F08CEC0E94B4008EEB0E94B4000D
:100220000E94E100182F0E94E1001695412F50E036
:10023000382F20E0422B532B02C040E050E8CA0187
:100240001F91089582E00E9454008EE40E944D00A8
:100250008FE40E944D0080E20E944D0084E40E94E1
:100260004D0085E40E944D0086E50E944D0089E422
:100270000E944D0083E40E944D0085E40E944D00E1
:100280000895EF92FF920F931F93CF93DF93082F60
:10029000F62EE42E122F82E00E945400812F0E943D
:1002A0004D00002321F0802F805D0E944D008F2D96
:1002B000805D0E944D008E2D805D0E944D0082EB7E
:1002C0000E944D0083E40E944D00C0E0D0E080E237
:1002D0000E944D002196C430D105C9F7DF91CF911E
:1002E0001F910F91FF90EF900895382F843630F0D2
:1002F000809161008F5F809361003456209163008C
:10030000832F6AE00E94B701280F20936300832F98
:100310000E94B7019093620008951F938FEF81BBF5
:100320000E945B00109261001092620010926300C4
:100330000E94F7009C0180E82030380719F40E94E1
:100340002201F0CF9F3F11F41DE201C01BE2822F7A
:100350001D3209F481950E947501809161006091C0
:10036000630040916200212F0E944101DBCF991B65
:1003700079E004C0991F961708F0961B881F7A959C
:0A038000C9F780950895F894FFCFA7
:00000001FF
