S01700004763634170706C69636174696F6E312E737265635B
S11300000C942A000C943C000C943C000C943C008E
S11300100C943C000C943C000C943C000C943C006C
S11300200C943C000C943C000C943C000C943C005C
S11300300C943C000C943C000C943C000C943C004C
S11300400C943C000C943C000C943C000C943C003C
S11300500C943C0011241FBECFE5D4E0DEBFCDBF1D
S113006020E0A0E6B0E001C01D92A236B207E1F79D
S11300700E94DB000C941F010C94000028E030E087
S113008002C0220F331F8A95E2F725BB000000004F
S113009083B38F7090E008950F931F93CF93DF93F2
S11300A084E00E943E00EC0183E00E943E008C014B
S11300B082E00E943E0002951295107F1027007F77
S11300C0102720E030E0382F202B312BC22BD32BEC
S11300D081E00E943E0020E030E0382F3295307FEE
S11300E0C9018C2B9D2BDF91CF911F910F91089506
S11300F0CF93DF930E944C00EC012FE788E391E05B
S1130100215080409040E1F700C000000E944C0064
S11301108C239D23209160003091610020953095BF
S1130120909361008093600082239323DF91CF91A9
S1130130089580FD20C081FD20C082FD20C083FD84
S113014020C084FD20C085FD20C086FD20C087FD21
S113015020C090FD20C091FD20C092FD20C093FDE1
S113016020C094FD20C095FD20C096FD20C0992399
S113017004F180E008958AE2089580E3089583E21B
S1130180089584E4089587E3089588E3089589E34E
S1130190089583E4089584E3089585E3089586E348
S11301A0089582E4089581E3089582E3089583E342
S11301B0089581E408958FEF87BB80EF84BB1FEF20
S11301C010926100109260000E9478000E949900D1
S11301D0C82FD0E02097C1F30E9478000E949900B4
S11301E090E00097C9F3E09771F4C99779F418BBCC
S11301F02FEF37EA41E6215030404040E1F700C09C
S1130200000018BADDCF88E090E002C088E090E0FA
S113021018BB2FE73AE146E0215030404040E1F777
S113022000C0000018BA2FE73AE146E02150304000
S11302304040E1F700C00000019751F7C1CFF894A6
S1050240FFCFEA
S9030000FC
