S01700004763634170706C69636174696F6E322E737265635A
S11300000C942A000C9434000C9434000C943400A6
S11300100C9434000C9434000C9434000C9434008C
S11300200C9434000C9434000C9434000C9434007C
S11300300C9434000C9434000C9434000C9434006C
S11300400C9434000C9434000C9434000C9434005C
S11300500C94340011241FBECFE5D4E0DEBFCDBF25
S11300600E9488000C941D010C94000090B39F70B2
S1130070282F207F290F22BB28E022BB12BA30E1AF
S1130080839F900D112492BB22BB12BA089594E071
S113009092BB0E94360082E78A95F1F700C008956A
S11300A018BA0E94360088E68A95F1F708952FEF72
S11300B089EF90E0215080409040E1F700C00000BB
S11300C090E392BB88E082BB12BA28E62A95F1F746
S11300D092BB82BB12BA98E69A95F1F790E292BB72
S11300E082BB12BA28E62A95F1F788E20E945000F2
S11300F08CE00E94500081E00E94500083EF9BE05E
S11301000197F1F700C0000086E00E9450000895B6
S113011017BA0E945700C0E010E0D0E000E0B79B9F
S11301202BC0B799FECF81E00E94500080E30E946B
S1130130470080E30E9447008DE40E94470089E461
S11301400E9447008EE40E9447008AE30E94470011
S113015080E30E94470080E30E94470083E50E94F9
S1130160470085E40E94470083E40E944700C0E002
S113017010E0D0E000E0D3CFB09BD1CFB09BCFCF85
S1130180B79B03C0CECFB799CCCFB799CACFB0999C
S11301904BC0C5CFB799C5CFB09BC1CFEFECF7E04B
S11301A03197F1F700C000000197A1F7CF5FCA3083
S11301B011F4DF5FC0E0D63011F41F5FD0E01A30D5
S11301C011F40F5F10E0063021F4C0E010E0D0E03D
S11301D000E081E00E94500080E3800F0E9447000D
S11301E080E3810F0E9447008DE40E94470089E468
S11301F00E9447008EE40E9447008AE30E94470061
S113020080E38D0F0E94470080E38C0F0E9447001B
S113021083E50E94470085E40E94470083E40E942E
S11302204700B099B0CF7BCF8FEC97E00197F1F7FF
S111023000C0000087EE93E0ADCFF894FFCF3E
S9030000FC
