:020000020000FC
:1000000000C08FE58DBF84E08EBF8FEF81BB882756
:1000100087BB8827442740E300272227112733275F
:100020003DD01DD03BD01BD056B357FD0C940C00D7
:1000300050FF0C94120088E493E007D113951A3016
:1000400051F411270395063031F4002733953A30E7
:1000500011F4332723952630F9F20C941200822FE5
:10006000840F50D0832F840F4DD080E24BD08DE48D
:1000700049D089E447D08EE445D08AE343D0802F2D
:10008000840F40D0812F840F3DD080E23BD083E5A8
:1000900039D085E437D083E435D0089588E290E004
:1000A000D4D080E382BB939A939887E290E0D7D034
:1000B00080E382BB939A939887E290E0D0D080E26D
:1000C00082BB939A939887E290E0C9D088E220D0CF
:1000D0008CE01ED081E01CD08AEF95E0C0D086E095
:1000E00017D008958F9390B39F70807F890F82BB44
:1000F000939A93988F918295807F890F82BB939A70
:1001000093980895929AEEDF8BE290E0A8D008953C
:100110009298E8DF87E290E0A2D00895682F1FD080
:100120008F939F93862F90E090D019D07F916F91FD
:1001300086239723A0E6B0E07D916C918C939E93EB
:100140007095609586239723089598E0990F8A9576
:10015000E9F795BB0000000083B38F70089581E03C
:10016000F4DF8295B82F82E0F0DFB80F83E0EDDF97
:100170008295A82F84E0E9DFA80FCD010895DC0166
:1001800085E4A0FD089580E3A1FD089586E4A2FD25
:10019000089584E4A3FD089587E3A4FD089588E30A
:1001A000A5FD089589E3A6FD089583E4A7FD0895BC
:1001B00084E3B0FD089585E3B1FD089586E3B2FDC3
:1001C000089582E4B3FD089581E3B4FD089582E3C8
:1001D000B5FD089583E3B6FD089581E4B7FD089564
:1001E00088270895DC018EE0A0FD089580E0A1FD40
:1001F00008958FE0A2FD08958DE0A3FD089587E0A6
:10020000A4FD089588E0A5FD089589E0A6FD089560
:100210008CE0A7FD089584E0B0FD089585E0B1FD70
:10022000089586E0B2FD08958BE0B3FD089581E066
:10023000B4FD089582E0B5FD089583E0B6FD08950C
:100240008AE0B7FD0895882708958F939F9386EEDF
:1002500093E005D09F918F910197B9F70895019789
:0E02600000000000000000000000C9F7089533
:00000001FF
