S0110000657833635F6C6162322E73726563E0
S11300000C942A000C943C000C943E000C943C008C
S11300100C943C000C943C000C943C000C943C006C
S11300200C947D000C943C000C943C000C943C001B
S11300300C943C000C943C000C943C000C943C004C
S11300400C943C000C943C000C943C000C943C003C
S11300500C943C0011241FBECFE5D4E0DEBFCDBF1D
S113006020E0A0E6B0E001C01D92A136B207E1F79E
S11300700E9488000C94B2000C9400001F920F920E
S11300800FB60F9211242F938F939F93EF93FF93A7
S113009090E89ABFEFE0F7E23197F1F700C0000073
S11300A08AB78093600080916000882394F3C0999C
S11300B007C086E295E89DBD8CBD81E088BB13C076
S11300C0C09B11C08FEF88BBFFEF24E38CE0F1509D
S11300D020408040E1F700C0000086E295E89DBD25
S11300E08CBD81E088BBFF91EF919F918F912F91FF
S11300F00F900FBE0F901F9018951F920F920FB67E
S11301000F92112418BA0F900FBE0F901F901895DC
S11301108CE085BF80E88BBF84E089BF85E08EBD1D
S113012078948FEF87BB1ABA9FEF26E235E881E017
S1130130CF9BFECFCF99FECFC09904C03DBD2CBD4F
S113014088BBF6CFC09BF4CF98BB4FEF54E36CE071
S1130150415050406040E1F700C000003DBD2CBD5F
S10B016088BBE6CFF894FFCF41
S9030000FC
