:100000000C942A000C9434000C9434000C943400AA
:100010000C9434000C9434000C9434000C94340090
:100020000C9434000C9434000C9434000C94340080
:100030000C9434000C9434000C9434000C94340070
:100040000C9434000C9434000C9434000C94340060
:100050000C94340011241FBECFE5D4E0DEBFCDBF29
:100060000E944B000C9453000C94000090B39F70BE
:10007000807F890F82BB939A82B382BB92BB939A93
:1000800082B382BB81E085BB0895929A0E943600BC
:1000900082E085BB089517BA8FEF84BB81BB8DE4E6
:0A00A0000E944500FCCFF894FFCF4A
:00000001FF
