:100000000C942A000C9447000C9447000C94470071
:100010000C9447000C9447000C9447000C94470044
:100020000C94DD040C9447000C9447000C9447009A
:100030000C9447000C9447000C9447000C94470024
:100040000C9447000C9447000C9447000C94470014
:100050000C94470011241FBECFE5D4E0DEBFCDBF16
:1000600010E0A0E6B0E0EAEBFAE002C005900D92E5
:10007000AE36B107D9F710E0AEE6B0E001C01D9290
:10008000A437B107E1F70E94E5030C945B050C94DB
:10009000000028E030E002C0220F331F8A95E2F70B
:1000A00025BB0000000023B330E02F703070C90181
:1000B000089580E885BB0000000063B380E485BB41
:1000C0000000000023B380E285BB0000000083B382
:1000D00040E145BB0000000043B330E02F703070BA
:1000E00074E0220F331F7A95E1F790E08F709070E3
:1000F000982F8827282B392B70E06F707070262B73
:10010000372B50E0542F44275295507F242B352B0A
:10011000C9010895CF93DF930E945900EC0184EF49
:1001200091E028EC30E0F9013197F1F70197D9F728
:100130000E9459008C239D2320916E0030916F0006
:10014000209530952823392390936F0080936E007B
:10015000C901DF91CF91089580FF02C08AE208951E
:1001600081FF02C080E3089582FF02C083E2089508
:1001700083FF02C084E4089584FF02C087E30895EA
:1001800085FF02C088E3089586FF02C089E30895D1
:1001900087FF02C083E4089590FF02C084E30895BE
:1001A00091FF02C085E3089592FF02C086E308959F
:1001B00093FF02C082E4089594FF02C081E3089592
:1001C00095FF02C082E3089596FF02C083E308957D
:1001D00097FD02C080E0089581E408951BB888E18E
:1001E0008AB910BC83E389B986E880BD08955D9B18
:1001F000FECF8CB908955F9BFECF8CB1089520B3DC
:100200002F70982F907F922B92BB939A9398829500
:10021000807F282B22BB939A93980895929A0E94EC
:10022000FF0082E78A95F1F7089592980E94FF00F7
:1002300088E68A95F1F7089580E991E028EC30E0AE
:10024000F9013197F1F70197D9F780E382BB939ACF
:10025000939898E6292F2A95F1F782BB939A939861
:1002600085E38A95F1F780E282BB939A93989A95F9
:10027000F1F788E20E9415018CE00E94150181E0EF
:100280000E94150184EF9BE00197F1F786E00E9440
:1002900015010895D49ADC9880EC93E00197F1F76A
:1002A000D498DC9888EC90E00197F1F789B3E8EFF7
:1002B000F2E03197F1F782958F7080958170089503
:1002C000D49ADC9895E09A95F1F780FF02C0DC9A09
:1002D00003C08BB380718BBB8AE98A95F1F7D49800
:1002E000DC9882E08A95F1F708951F93CF93DF930E
:1002F000182FC0E0D0E010FD02C080E001C081E016
:100300000E9460012196C830D10511F01695F3CFF7
:10031000DF91CF911F910895D49ADC9885E08A955A
:10032000F1F7D498DC988AE18A95F1F789B392E8DD
:100330009A95F1F790E0E4E096958795EA95E1F7D4
:10034000817008951F93CF93DF9310E0C0E0D0E059
:100350000E948C01813009F480E81695182B2196B3
:10036000C830D105A9F7812FDF91CF911F91089552
:100370001F930E944A01882309F18CEC0E947501A9
:1003800084E40E9475010E948C0180FFFCCF0E94D2
:100390004A01882399F08CEC0E9475018EEB0E9433
:1003A00075010E94A201182F0E94A2011695412FEB
:1003B00050E0382F20E0422B532B02C040E050E8A1
:1003C000CA011F91089582E00E9415018EE40E94E7
:1003D0000E018FE40E940E0180E20E940E0184E46F
:1003E0000E940E0185E40E940E0186E50E940E0126
:1003F00089E40E940E0183E40E940E0185E40E94BC
:100400000E010895EF92FF920F931F93CF93DF9306
:10041000082FF62EE42E122F82E00E941501812F64
:100420000E940E01002321F0802F805D0E940E01AA
:100430008F2D805D0E940E018E2D805D0E940E0129
:1004400082EB0E940E0183E40E940E01C0E0D0E026
:1004500080E20E940E012196C430D105C9F7DF91D8
:10046000CF911F910F91FF90EF900895382F843610
:1004700030F0809171008F5F80937100345620912D
:100480007300832F6AE00E944605280F20937300B3
:10049000832F0E944605909372000895FC01DF01AE
:1004A0005F9BFECF8CB181938A30C9F71C9208956F
:1004B0005D9BFECF84E78CB95D9BFECF85E68CB952
:1004C0005D9BFECF81E68CB95D9BFECF8DE68CB93E
:1004D0005D9BFECF8EE68CB95D9BFECF81E68CB92D
:1004E0005D9BFECF8DE68CB95D9BFECF85E68CB91A
:1004F0005D9BFECF8AE38CB95D9BFECF82E28CB917
:100500005D9BFECF87E48CB95D9BFECF89E38CB900
:100510005D9BFECF82E28CB95D9BFECF8AE08CB9F9
:1005200008955D9BFECF83E68CB95D9BFECF8FE681
:100530008CB95D9BFECF8EE68CB95D9BFECF8EE6BF
:100540008CB95D9BFECF85E68CB95D9BFECF83E6C3
:100550008CB95D9BFECF84E78CB95D9BFECF8AE0B2
:100560008CB908951F93182F82E00E941501812FE6
:100570000E940E018EE20E940E0183E50E940E0190
:1005800085E70E940E0183E60E940E0183E60E9429
:100590000E0185E60E940E0183E70E940E0183E7AB
:1005A0000E940E011F9108951F93182F82E00E9450
:1005B0001501812F0E940E018EE20E940E0186E439
:1005C0000E940E0181E60E940E0189E60E940E0142
:1005D0008CE60E940E0180E20E940E0180E20E94E1
:1005E0000E0180E20E940E011F910895982F5D9BDD
:1005F000FECF80E78CB95D9BFECF81E68CB95D9B19
:10060000FECF89E78CB95D9BFECF8CE68CB95D9BF4
:10061000FECF8FE68CB95D9BFECF81E68CB95D9BEA
:10062000FECF84E68CB95D9BFECF8BE58CB95D9BDC
:10063000FECF8BE78CB95D9BFECF82E28CB95D9BD0
:10064000FECF8EE68CB95D9BFECF81E68CB95D9BBB
:10065000FECF8DE68CB95D9BFECF85E68CB95D9BA8
:10066000FECF82E28CB95D9BFECF8AE38CB95D9BA5
:10067000FECF82E28CB95D9BFECF84E58CB95D9B99
:10068000FECF85E68CB95D9BFECF8DE68CB95D9B78
:10069000FECF80E78CB95D9BFECF85E68CB95D9B74
:1006A000FECF82E78CB95D9BFECF81E68CB95D9B66
:1006B000FECF84E78CB95D9BFECF85E78CB95D9B4F
:1006C000FECF82E78CB95D9BFECF85E68CB95D9B42
:1006D000FECF82E28CB95D9BFECF8CE28CB95D9B34
:1006E000FECF82E28CB95D9BFECF86E78CB95D9B25
:1006F000FECF81E68CB95D9BFECF8CE68CB95D9B0D
:10070000FECF85E78CB95D9BFECF85E68CB95D9BFE
:10071000FECF82E28CB95D9BFECF8AE38CB95D9BF4
:10072000FECF9CB95D9BFECF6CB95D9BFECF8DE784
:100730008CB95D9BFECF8DE58CB95D9BFECF8AE0C9
:100740008CB90895982F5D9BFECF82E78CB95D9B95
:10075000FECF85E68CB95D9BFECF81E68CB95D9BB3
:10076000FECF84E68CB95D9BFECF89E78CB95D9B9B
:10077000FECF8AE38CB9943579F45D9BFECF84E794
:100780008CB95D9BFECF82E78CB95D9BFECF85E780
:100790008CB95D9BFECF12C05D9BFECF86E68CB907
:1007A0005D9BFECF81E68CB95D9BFECF8CE68CB95C
:1007B0005D9BFECF83E78CB95D9BFECF85E68CB950
:1007C0005D9BFECF8AE08CB90895DF92EF92FF9295
:1007D0000F931F93DF93CF93CDB7DEB7C456D040AE
:1007E0000FB6F894DEBF0FBECDBF8FEF81BB80EF99
:1007F00084BB1BB888E18AB910BC83E389B986E859
:1008000080BD0E941C010E9458028E010F5F1F4F85
:1008100084E6D8011D928A95E9F7C8010E944E022C
:10082000C80160E670E00E945205009721F481E360
:100830000E94B2020AC0C80168E670E00E94520538
:10084000009719F481E30E94D40280E197E228EC3A
:1008500030E0F9013197F1F70197D9F78E010F5F79
:100860001F4F84E6F80111928A95E9F70E949102E0
:10087000C8010E944E02C80160E670E00E94520565
:10088000009721F482E30E94B2020AC0C80168E620
:1008900070E00E945205009719F482E30E94D4028E
:1008A00080E197E228EC30E0F9013197F1F7019708
:1008B000D9F7FE01319684E6DF011D928A95E9F7AA
:1008C000A4E6DA2E8F01F8ECEF2EF12C10926F00D7
:1008D00010926E00F89410927100109272001092B3
:1008E00073000E94B8019C01B0E880309B0719F4A6
:1008F0000E94E30130C09F3F11F49DE201C09BE2E2
:10090000822F9D3209F481950E94360280917300F6
:1009100060917200605D805D0E94F602F8018D2D8D
:1009200011928A95E9F7C8010E944E02C80160E65B
:1009300070E00E945205009721F483E30E94B20206
:100940000AC0C80168E670E00E945205009719F4D9
:1009500083E30E94D40280E197E2F7013197F1F737
:100960000197D9F778940E948A000E94AC008933DD
:1009700011F484E501C086E40E94A203D801ED2DA4
:100980001D92EA95E9F7C8010E944E02C80160E68F
:1009900070E00E945205009721F484E30E94B202A5
:1009A00095CFC80168E670E00E945205009709F0F3
:1009B0008DCF84E30E94D40289CF1F920F920FB68D
:1009C0000F9211240F931F932F933F934F935F9395
:1009D0006F937F938F939F93AF93BF93EF93FF9307
:1009E000DF93CF93CDB7DEB7C456D040DEBFCDBFC7
:1009F000F8940E948A000E94AC00893311F484E5C7
:100A000001C086E40E94A2038E010F5F1F4F84E69F
:100A1000F80111928A95E9F7C8010E944E02C801B7
:100A200060E670E00E945205009721F084E30E9486
:100A3000B2020AC0C80168E670E00E945205009741
:100A400019F084E30E94D40284E089BF82E08EBD65
:100A50008FEF8DBD8BEF8CBD7894CC59DF4FDEBF0F
:100A6000CDBFCF91DF91FF91EF91BF91AF919F915A
:100A70008F917F916F915F914F913F912F911F9136
:100A80000F910F900FBE0F901F901895991B79E052
:100A900004C0991F961708F0961B881F7A95C9F70E
:100AA00080950895FB01DC018D9101908019011062
:0A0AB000D9F3990B0895F894FFCFD5
:0E0ABA0053756363657373004661696C0000D9
:00000001FF
