:020000020000FC
:1000000000C08FE58DBF84E08EBF8FEF87BB882750
:10001000B6D05BE249D09038C9F090FF5DE2082F7E
:100020002DD082E0E6D0413069F0832F90E3890F34
:10003000DAD0822F90E3890FD6D088EFD4D083E432
:10004000D2D0E7CF842FCFD00C94150002D00C94DF
:10005000090082E0CED08EE4C6D08FE4C4D080E226
:10006000C2D084E4C0D085E4BED086E5BCD089E4AB
:10007000BAD083E4B8D085E4B6D0089522273327D8
:1000800044275D3261F0843610F041E084568A30B6
:1000900020F033958A500C944700282F08958095BE
:1000A00091E0890F0C94430056D08030A9F08CEC7D
:1000B00034D084E41FD080FF0C945A004CD08030A0
:1000C00059F08CEC2AD08EEB28D009D0082F07D01D
:1000D000982F0695802F089580E090E80895B8E065
:1000E000AA2708D0A69580FD80E8A82BBA95C9F765
:1000F0008A2F0895D49ADC9882E090E08AD0D49830
:10010000DC988AE090E085D08827CC9981E08F93B5
:1001100081E390E07ED08F910895A82FB8E08827E2
:10012000A0FD81E004D0A695BA95C9F708958F93F4
:10013000D49ADC9882E090E06CD08F9180FDDC9ABC
:1001400080FFDC988AE390E064D0D498DC9881E06A
:1001500090E05FD00895D49ADC9880EE91E059D079
:10016000D498DC9884E690E054D089B38F938CE7E0
:1001700091E04FD09F91882794FF81E0089588E215
:1001800090E03DD080E382BB939A939887E290E021
:1001900040D080E382BB939A939887E290E039D075
:1001A00080E282BB939A939887E290E032D088E213
:1001B00020D08CE01ED081E01CD08AEF95E029D0C1
:1001C00086E017D008958F9390B39F70807F890F3A
:1001D00082BB939A93988F918295807F890F82BB7F
:1001E000939A93980895929AEEDF8BE290E011D063
:1001F00008959298E8DF87E290E00BD008958F93FE
:100200009F9386EE93E005D09F918F910197B9F768
:100210000895019700000000000000000000C9F7E9
:0202200008953F
:00000001FF
