:020000020000FC
:020000001CC022
:1000380013C08FE58DBF84E08EBF49D043D08FEFCA
:1000480087BB00E0789408BB88EC90E053D0039518
:100058000F3FB9F30C9426009F938F9389E442D005
:10006800E0E0F0E024E015E0312F422F8894221FD1
:10007800111F221F111F8894240F131F5AE0889400
:10008800179527955150523011F421FDF1E0513068
:1000980011F421FDE1E0503091F7822F90E3890FB0
:1000A80021D08EE21FD087E3E0FF80E31BD085E3F9
:1000B800F0FF80E317D086E515D08DE013D08F913F
:1000C8009F91189580E487B98FE886B908958827A5
:1000D8008BB988E18AB980E080BD83E389B986E875
:1000E80080BD08955D9BFECF8CB908955F9BFECFC0
:1000F8008CB108958F939F9386EE93E005D09F91DE
:100108008F910197B9F7089501970000000000004A
:060118000000D1F708957C
:00000001FF
