:020000020000FC
:0200000010C02E
:020008004BC0EB
:1000200078C08FE58DBF84E08EBF8CE085BF8827C8
:1000300080E88BBF88277894F0E08FEF87BB84BB84
:1000400088278ABB442709B307FF0C94230009B310
:100050000038E9F348B340FD0C943D00222724E02A
:1000600029BF222725E02EBD222735E83DBD36E2F7
:100070003CBD11E018BB0C9423001FEF18BB0E947D
:100080009100222724E029BF222725E02EBD222728
:1000900035E83DBD36E23CBD11E018BB0C942300B1
:1000A00050E85ABF84E392EF9A95F1F78A95E1F709
:1000B00000006AB767FD0C94500048B340FD0C94F3
:1000C0006F00222724E029BF222725E02EBD22270A
:1000D00035E83DBD36E23CBD11E018BB18951FEF79
:1000E00018BB75E1ABE4BFEBBA95F1F7AA95E1F760
:1000F0007A95D1F70000222724E029BF222785E046
:100100008EBD222735E83DBD36E23CBD11E018BB6F
:100110001895222720E029BF20E02EBD222728BBEA
:100120001895C5E1DBE4EFEBEA95F1F7DA95E1F735
:08013000CA95D1F70000089503
:00000001FF
