:100000000C942A000C9434000C9434000C943400AA
:100010000C9434000C9434000C9434000C94340090
:100020000C9434000C9434000C9434000C94340080
:100030000C9434000C9434000C9434000C94340070
:100040000C9434000C9434000C9434000C94340060
:100050000C94340011241FBECFE5D4E0DEBFCDBF29
:100060000E94E1000C940D010C9400001BB888E183
:100070008AB910BC83E389B986E880BD08955D9B89
:10008000FECF8CB908955F9BFECF8CB108955D9B28
:10009000FECF89E48CB95D9BFECF8EE68CB95D9B6B
:1000A000FECF86E78CB95D9BFECF81E68CB95D9B68
:1000B000FECF8CE68CB95D9BFECF89E68CB95D9B4B
:1000C000FECF84E68CB95D9BFECF80E28CB95D9B50
:1000D000FECF8EE48CB95D9BFECF85E78CB95D9B2E
:1000E000FECF8DE68CB95D9BFECF82E68CB95D9B21
:1000F000FECF85E68CB95D9BFECF82E78CB95D9B18
:10010000FECF1CB80895982F5D9BFECF8EE48CB96E
:100110005D9BFECF85E78CB95D9BFECF8DE68CB9EC
:100120005D9BFECF82E68CB95D9BFECF85E68CB9E8
:100130005D9BFECF82E78CB95D9BFECF80E28CB9E0
:100140005D9BFECF82E58CB95D9BFECF85E68CB9C9
:100150005D9BFECF81E68CB95D9BFECF84E68CB9BA
:100160005D9BFECF8AE38CB95D9BFECF1CB85D9B87
:10017000FECF9CB908958433C1F0853338F48233BF
:1001800081F0833380F48133D9F409C0863389F058
:10019000863368F0873379F0883391F40FC081E0BB
:1001A0000BC083E009C087E007C08FE005C08FE186
:1001B00003C08FE301C08FE788BB08958FEF88BB32
:1001C00008950F931F938FEF87BB1BB888E18AB9FF
:1001D00010BC83E389B986E880BD0AE05F9BFECF4F
:1001E0001CB1193331F40E9447005D9BFECF0CB95E
:1001F000F5CF103341F480E30E9483005D9BFECF76
:100200000CB918BAEBCF812F0E9483005D9BFECF03
:0E0210000CB9812F0E94BB00E1CFF894FFCF04
:00000001FF
